{
  "contractName": "Election",
  "abi": [
    {
      "constant": true,
      "inputs": [],
      "name": "candidatesCount",
      "outputs": [
        {
          "name": "",
          "type": "uint256"
        }
      ],
      "payable": false,
      "stateMutability": "view",
      "type": "function",
      "signature": "0x2d35a8a2"
    },
    {
      "constant": true,
      "inputs": [
        {
          "name": "",
          "type": "uint256"
        }
      ],
      "name": "candidates",
      "outputs": [
        {
          "name": "id",
          "type": "uint256"
        },
        {
          "name": "name",
          "type": "string"
        },
        {
          "name": "voteCount",
          "type": "uint256"
        }
      ],
      "payable": false,
      "stateMutability": "view",
      "type": "function",
      "signature": "0x3477ee2e"
    },
    {
      "constant": false,
      "inputs": [],
      "name": "Elections",
      "outputs": [],
      "payable": false,
      "stateMutability": "nonpayable",
      "type": "function",
      "signature": "0x256db31f"
    }
  ],
  "bytecode": "0x608060405234801561001057600080fd5b506103f3806100206000396000f3fe608060405260043610610057576000357c0100000000000000000000000000000000000000000000000000000000900463ffffffff168063256db31f1461005c5780632d35a8a2146100735780633477ee2e1461009e575b600080fd5b34801561006857600080fd5b50610071610160565b005b34801561007f57600080fd5b506100886101de565b6040518082815260200191505060405180910390f35b3480156100aa57600080fd5b506100d7600480360360208110156100c157600080fd5b81019080803590602001909291905050506101e4565b6040518084815260200180602001838152602001828103825284818151815260200191508051906020019080838360005b83811015610123578082015181840152602081019050610108565b50505050905090810190601f1680156101505780820380516001836020036101000a031916815260200191505b5094505050505060405180910390f35b61019e6040805190810160405280600b81526020017f63616e64696461746520310000000000000000000000000000000000000000008152506102a6565b6101dc6040805190810160405280600b81526020017f63616e64696461746520320000000000000000000000000000000000000000008152506102a6565b565b60015481565b6000602052806000526040600020600091509050806000015490806001018054600181600116156101000203166002900480601f0160208091040260200160405190810160405280929190818152602001828054600181600116156101000203166002900480156102965780601f1061026b57610100808354040283529160200191610296565b820191906000526020600020905b81548152906001019060200180831161027957829003601f168201915b5050505050908060020154905083565b600160008154809291906001019190505550606060405190810160405280600154815260200182815260200160008152506000806001548152602001908152602001600020600082015181600001556020820151816001019080519060200190610311929190610322565b506040820151816002015590505050565b828054600181600116156101000203166002900490600052602060002090601f016020900481019282601f1061036357805160ff1916838001178555610391565b82800160010185558215610391579182015b82811115610390578251825591602001919060010190610375565b5b50905061039e91906103a2565b5090565b6103c491905b808211156103c05760008160009055506001016103a8565b5090565b9056fea165627a7a723058207cd3ded37dc8e494a45f0c0c0e2b6e72e9a24e8e0e0cc852c15877c0ca611b360029",
  "source": "pragma solidity ^0.5.0;\r\n\r\n\r\n/**\r\n * The contractName contract does this and that...\r\n */\r\ncontract Election {\r\n\t//constructor\r\n\tstruct Candidate{\r\n\t\tuint id;//unsigned integer\r\n\t\tstring name;\r\n\t\tuint voteCount;\r\n\t}\r\n\r\n\tmapping(uint => Candidate) public candidates;\r\n\r\n\r\n\tuint public candidatesCount;\r\n\tfunction Elections() public{\r\n\t\taddCandidate(\"candidate 1\");\r\n\t\taddCandidate(\"candidate 2\");\r\n\t\t}\r\n\r\n\r\n\tfunction addCandidate (string memory _name) internal {//local variable name\r\n\t\tcandidatesCount ++;\r\n\t candidates[candidatesCount] = Candidate(candidatesCount, _name , 0);\r\n\t}\t\r\n}\r\n\r\n",
  "sourcePath": "D:/votin-blockchain/votin-blockchain/election/contracts/Election.sol",
  "compiler": {
    "name": "solc",
    "version": "0.5.0+commit.1d4f565a.Emscripten.clang"
  },
  "schemaVersion": "3.0.1",
  "updatedAt": "2019-01-15T03:59:09.351Z",
  "devdoc": {
    "methods": {}
  },
  "userdoc": {
    "methods": {},
    "notice": "The contractName contract does this and that...\r"
  }
}